:020000040800F2
:1000000000000320F5020008011A0008191A000870
:10001000911A0008311A0008491A0008000000006F
:10002000000000000000000000000000611A00084D
:10003000A91A000800000000791A0008C11A000877
:10004000E9190008E9190008E9190008F51700087E
:10005000E9190008E9190008E9190008E919000878
:10006000E9190008E9190008E9190008E919000868
:10007000E9190008E9190008E9190008E919000858
:10008000E9190008E9190008E9190008E919000848
:10009000E9190008E9190008E9190008E919000838
:1000A000E9190008E9190008E9190008E919000828
:1000B000E9190008E9190008E9190008E919000818
:1000C000E9190008E9190008E9190008E919000808
:1000D000E9190008E9190008E9190008E9190008F8
:1000E000E9190008E9190008E9190008E9190008E8
:1000F000E9190008E9190008E9190008E9190008D8
:10010000E9190008E9190008E9190008E9190008C7
:10011000E9190008E9190008E9190008E9190008B7
:10012000E9190008E9190008E9190008E9190008A7
:10013000E9190008E9190008E9190008E919000897
:10014000E9190008E9190008E9190008E919000887
:10015000E9190008E9190008E9190008E919000877
:10016000E9190008E9190008E9190008E919000867
:10017000E9190008E9190008E9190008E919000857
:10018000E9190008E9190008E9190008E919000847
:10019000E9190008E9190008E9190008E919000837
:1001A000E9190008E9190008E9190008E919000827
:1001B000E9190008E9190008E9190008E919000817
:1001C000E9190008E9190008E9190008E919000807
:1001D000E9190008E9190008E9190008E9190008F7
:1001E000E9190008E9190008E9190008E9190008E7
:1001F000E9190008E9190008E9190008E9190008D7
:10020000E9190008E9190008E9190008E9190008C6
:10021000E9190008E9190008E9190008E9190008B6
:10022000E9190008E9190008E9190008E9190008A6
:10023000E9190008E9190008E9190008E919000896
:1002400010B4104C05E052F8041B43F8041B98420C
:10025000F9D80D4B9C4204D222686368A0680C3424
:10026000F5E70A4804E0002243F8042B9942FAD843
:10027000074B984203D2036841680830F6E710BC88
:10028000704700BF080300085C0300085C03000817
:100290007C03000838B50D4D0D4BED1AAD10002450
:1002A00004E00B4B53F8243098470134AC42F8DBA0
:1002B000084D094BED1AAD10002404E0064B53F82D
:1002C000243098470134AC42F8DB38BD7C03000889
:1002D0007C030008840300087C03000808B5FFF7CE
:1002E000D9FF08BD08B507488546FFF7A9FF0120DB
:1002F00001F0F0F908B503488546FFF7A1FF00209B
:0803000001F0E8F90000032000
:10030800C41A00080800002008000020C41A0008C9
:100318000800002008000020C41A00080800002077
:1003280008000020C41A0008080000200800002067
:100338007C03000808000020080000207C03000857
:1003480008000020080000207C03000808000020A6
:100358000800002008000020A80000200800002055
:1003680008000020080000200800002008000020E5
:040378000800002059
:10037C00C1030008C5160008012800D070474FF6CD
:10038C00FF739942FAD10A4B00221A705A609A6094
:10039C00DA601A615A6101211976DA611A625A62BD
:1003AC009A62DA62DA631A64DA6483F85820E5E751
:1003BC000800002008B54FF6FF710120FFF7DCFFA5
:1003CC0008BD70B5C0B00546134600228DF800205C
:1003DC000A464FF48071684600F014FC6E4696F99C
:1003EC0000403CB12146284601F01AF90028F9D00A
:1003FC000136F4E740B070BD0EB400B582B003AA6C
:10040C0052F8041B0192FFF7DCFF02B05DF804EB1D
:10041C0003B070479A4200D2885470477047014627
:10042C00002008E000EB8000531C0B6092F90030B8
:10043C0003EB400030380A6892F90030303BDBB2F5
:10044C00092BEFD970472DE9F04F83B005460E46C6
:10045C0093461F46DDF830A00D9CDDF838900F9BBD
:10046C0013F0030F19D1A0460192C84509D202F12D
:10047C00010B3B4631462020A84708F101085A469B
:10048C00F3E7DDF804B008E0013C02F101083B465B
:10049C0031461AF90400A8474246002CF4D10F9BB0
:1004AC0013F0020F0AD0A2EB0B034B4506D2541CDF
:1004BC003B4631462020A8472246F4E7104603B0BD
:1004CC00BDE8F08F2DE9F04385B00C9D0D9C9DF897
:1004DC003890DDF83C80DDF840E0119F129E16F05C
:1004EC00020F21D17FB116F0010F0CD0B9F1000F22
:1004FC0002D116F00C0F06D0013F04E04FF0300C87
:10050C0005F804C00134744501D21F2CF6D916F03D
:10051C00010F09D0BC4207D21F2C05D84FF0300C6C
:10052C0005F804C00134F2E716F0100F17D016F4DA
:10053C00806F04D11CB1744524D0BC4222D0B8F1D8
:10054C00100F2BD0B8F1100F33D0B8F1020F3BD0F5
:10055C001F2C04D84FF0300C05F804C001341F2CAC
:10056C0007D8B9F1000F37D04FF02D0C05F804C0A7
:10057C0001340396029701940095FFF764FF05B0D0
:10058C00BDE8F083B4F1010C06D0B8F1100F01D026
:10059C006446D4E7023CD2E76446D0E716F0200F5D
:1005AC00D0D11F2CCED84FF0780C05F804C00134F4
:1005BC00CEE716F0200FC8D01F2CC6D84FF0580C21
:1005CC0005F804C00134C3E71F2CC1D84FF0620CEE
:1005DC0005F804C00134BBE716F0040F05D04FF04A
:1005EC002B0C05F804C00134C3E716F0080FC0D07B
:1005FC004FF0200C05F804C00134BAE7F0B591B007
:10060C00169C189E1B9F0CB927F0100717F48065D9
:10061C0015D06CB3002512E00EF1300C4FFA8CFCA7
:10062C0005F1010E40356D4405F820CCB4FBF6FC09
:10063C00B4421ED3BEF11F0F1BD875466446B4FBE3
:10064C00F6FC06FB1C4E4FFA8EFCBCF1090FE3DDE9
:10065C0017F0200F09D04FF0410CF4445FFA8CFCDA
:10066C00ACF10A0C4FFA8CFCDAE74FF0610CF4E7B2
:10067C00A64606971A9C0594199C049403969DF81B
:10068C005C400294CDF804E008AC0094FFF71AFF2C
:10069C0011B0F0BD2DE9F04F8BB00746164609930B
:1006AC008B4691B10024099B93F90000002800F0BF
:1006BC009B8225280BD0651C334622465946B847E9
:1006CC00099B013309932C46EDE78B4FEAE7013385
:1006DC0009930025099B93F90010A1F12002102A1F
:1006EC000AD8DFE802F03A09093F090909090909A2
:1006FC000935093009092B00A1F13003DBB2092BB4
:10070C0035D92A2938D000230693099B93F9002068
:10071C002E2A41D04FF0000A099A92F90030683B1A
:10072C00122B7AD8DFE803F06679757957797979E5
:10073C0079797979797979797979D70045F00105E1
:10074C0001330993C6E745F0020501330993C1E76C
:10075C0045F0040501330993BCE745F00805013366
:10076C000993B7E745F0100501330993B2E709A8DF
:10077C00FFF755FE0690C8E7149B1A1D14921868D3
:10078C00002804DB0690099B01330993BDE745F073
:10079C00020543420693F6E745F480655A1C09921C
:1007AC0093F90120A2F13003DBB2092B04D92A2AD8
:1007BC0007D04FF0000AAFE709A8FFF730FE8246DA
:1007CC00AAE7149B1A1D14921B6823EAE37A099B6F
:1007DC0001330993A0E745F48071531C099392F9F6
:1007EC0001206C2A01D00D4617E045F44075013309
:1007FC00099312E045F08001531C099392F90120F2
:10080C00682A01D00D4608E045F0C0050133099374
:10081C0003E045F4007501320992099B93F900003D
:10082C00A0F12503532B00F2D581DFE813F0C801AA
:10083C00D301D301D301D301D301D301D301D3010C
:10084C00D301D301D301D301D301D301D301D301FC
:10085C00D301D301D301D301D301D301D301D301EC
:10086C00D301D301D301D301D301D301D301D301DC
:10087C00D301D301D301D301D301D301D301D301CC
:10088C00D301D301D301D301D301D301D301D301BC
:10089C00D301D3015900D301D301D301D301D30127
:1008AC00D301D301D301D30159000F015900D30156
:1008BC00D301D301D3015900D301D301D301D30107
:1008CC00D3015900AD01D301D3014901D301590022
:1008DC00D301D301590045F48075013209929CE78C
:1008EC0078280BD0582839D06F2839D0622839D0C5
:1008FC0025F010050A2302E02904000810235828CB
:10090C0032D0692803D0642801D025F00C0515F4E9
:10091C00806F01D025F00105692828D0642826D0E5
:10092C0015F4007F45D115F4807F6DD115F0400F83
:10093C007FD0149A111D1491127805950699049183
:10094C00CDF80CA00293002301930092334622466B
:10095C0059463846FFF752FE04462AE01023CEE7EC
:10096C000823CCE70223CAE745F02005C9E715F4B4
:10097C00007F1ED115F4807F1FD115F0400F35D0AC
:10098C00149A111D149192F9002082EAE271A1EBE4
:10099C00E271059506980490CDF80CA00293D20F45
:1009AC00019200913346224659463846FFF726FEFF
:1009BC000446099B0133099375E6149A111D149191
:1009CC00126882EAE271A1EBE27105950698049037
:1009DC00CDF80CA00293D20F01920091334622461F
:1009EC0059463846FFF70AFE0446E2E715F0800F39
:1009FC0005D0149A111D1491B2F90020C5E7149A70
:100A0C00111D14911268C0E7149A111D14910595CB
:100A1C0006990491CDF80CA002930023019313685E
:100A2C0000933346224659463846FFF7E7FD044605
:100A3C00BFE715F0800F04D0149A111D1491128881
:100A4C007BE7149A111D1491126876E715F00205D4
:100A5C0012D04FF001081498031D149304F10109EE
:100A6C0033462246594690F90000B847BDB9099B58
:100A7C00013309934C4616E60123DDF818A02246F3
:100A8C0003F101089A4508D902F101093346594688
:100A9C002020B84743464A46F2E71446DBE74A466D
:100AAC00DDF8189008F10104C14507D9551C3346EF
:100ABC0059462020B847A0462A46F3E79146D6E788
:100ACC00149B1A1D1492D3F80090BAF1000F0AD09F
:100ADC005346C84698F9002042B15A1E33B108F16A
:100AEC0001081346F6E74FF0FF33F2E7A8EB0908CD
:100AFC0015F48063079302D0C24500D8D04615F098
:100B0C000203089304D022465446B246079E1AE0CC
:100B1C002246069C43465D1C9C4208D902F1010802
:100B2C00334659462020B8472B464246F3E7A846A1
:100B3C005446B246079E06E009F10109551C53467E
:100B4C005946B8472A4699F9000028B1002EF3D02F
:100B5C00631E0CB11C46EFE714465646089B1BB9A6
:100B6C00099B013309939EE5DDF8189008F1010407
:100B7C00C14507D9551C334659462020B847A046D5
:100B8C002A46F3E71446EBE745F02105149B1A1DA2
:100B9C0014921B68059508220492CDF80CA0102223
:100BAC00029200220192009333462246594638465F
:100BBC00FFF724FD0446099B0133099373E5651C7B
:100BCC003346224659462520B847099B01330993E1
:100BDC002C4668E5651C334622465946B847099BA6
:100BEC00013309932C465EE5B44208D3721E33469A
:100BFC0059460020B84720460BB0BDE8F08F22467E
:100C0C00F5E700BF00B583B0009313460A460146D2
:100C1C000248FFF73FFD03B05DF804FB2104000818
:100C2C00064AD2F8FC3043F08073C2F8FC30A2F5CF
:100C3C005D42136843F001031360704700ED00E060
:100C4C00B0FBF1F303FB01F1814214BF0020012042
:100C5C0070474FF0B042136843F4803313604FF089
:100C6C00B0431B6813F4003FF9D07047104A136867
:100C7C0023F4C06343F4007313600D4B5B6913F4EE
:100C8C008063FAD10B4A904208D90B4B984204D995
:100C9C000A4B98420AD8022300E00123084A116843
:100CAC001360136843F4E063136070470323F5E7A4
:100CBC000004005880A812010051250280F9370366
:100CCC0000400058F8B506460C464FF0B042136889
:100CDC0023F0F00343F0610313604FF0B0431B6843
:100CEC0013F0020FF9D04FF0B042936823F00303D6
:100CFC0093604FF0B0439B6813F00C0FF9D14FF099
:100D0C00B042136823F0807313604FF0B0431B683C
:100D1C0013F0007FF9D14D4B4D4A1A604D4B9C425C
:100D2C0034D96008FFF7A2FF002E33D14FF0B04248
:100D3C00136843F4807313604FF0B0431B6813F4D3
:100D4C00806FF9D00225424E670043493046FFF7C9
:100D5C0077FF20B140493846FFF772FF08BB3F4987
:100D6C003046FFF76DFF20B13C493846FFF768FF6E
:100D7C00C8B93B493046FFF763FFB0B13849384634
:100D8C00FFF75EFF00285ED1334A0FE02046FFF7E5
:100D9C006DFFC9E73046FFF75CFF26F07046032570
:100DAC00D2E72D4A02E02D4A00E02B4AB6FBF2F3C3
:100DBC00B7FBF2F7012B00D9013B45EA031343EAD9
:100DCC00072343F04C5343F440334FF0B042D3600D
:100DDC00136843F0807313604FF0B0431B6813F03B
:100DEC00007FF9D04FF0B042936823F47F5323F087
:100DFC0030039360D2F8083123F0FF03C2F80831B6
:100E0C00144B9C4207D9D2F8083123F0FF0343F06E
:100E1C008803C2F808314FF0B042D2F8883023F082
:100E2C00030343F00101C2F8881043F003039360FD
:100E3C004FF0B0439B68C3F38103032BF8D1034BF2
:100E4C001C600120F8BD064AB0E700BFA8000020D6
:100E5C000024F4000048E80100093D00404B4C0020
:100E6C00C0C62D004FF0B042D2F8943043F00103CD
:100E7C00C2F894304FF0B043D3F8943013F0020F13
:100E8C00F8D04FF0B042D2F8943023F00403C2F8FB
:100E9C0094304FF0B043D3F8943013F0080FF8D1DE
:100EAC0080B31E4B1B6813F4807F09D11B4A136857
:100EBC0043F480731360194B1B6813F4807FFAD0D2
:100ECC004FF0B042D2F8903023F0180343F00103F6
:100EDC00C2F890304FF0B043D3F8903013F0020FBB
:100EEC00F8D04FF0B042D2F8903023F4407343F472
:100EFC008073C2F89030094A136823F4807313602E
:100F0C00012070474FF0B042D2F8903023F4407378
:100F1C0043F40073C2F89030EDE700BF00040058B2
:100F2C00072903D801F590118802704700207047FB
:100F3C00072908D84FF0B042D36C012000FA01F118
:100F4C001943D1647047002070472DE9F0410746E2
:100F5C00884616461D46FFF7E3FF002800F09480F4
:100F6C0004460F2E02D90020BDE8F08141463846D8
:100F7C00FFF7DEFF710015F4004F0DD00123B340D5
:100F8C00A36115F4F81C0CD115F0100F48D115F015
:100F9C00010007D0012005E00123B3401B04A3612D
:100FAC00EFE70220276803238B40DA4327EA030785
:100FBC002760276888403843206015F0020F31D035
:100FCC0060680127B74038436060E0681040E0601B
:100FDC0015F0040F2DD0E06801278F403843E060F6
:100FEC00A0680240A26015F470622BD1A3680122A4
:100FFC0002FA01F11943A160BCF1000F46D0C5F310
:10100C000345072E32DC236AB6000F22B24023EAD6
:10101C0002032362236AB5401D4325620120A3E726
:10102C000320BFE760680127B74020EA0700606033
:10103C00CBE715F0080FD3D0E06802278F40384378
:10104C00E060CDE7B2F5007F09D0B2F5407F06D065
:10105C00B2F5806FD0D1A2681343A360CCE7A3682C
:10106C00022202FA01F11943A160C5E7636A083E46
:10107C00B6000F22B24023EA02036362636AB540F2
:10108C001D43656201206FE700206DE701206BE7CF
:10109C00304B0360304A136843F4807313602E4B5B
:1010AC001B6813F4807FFAD04FF0B043D3F8903024
:1010BC0003F44073B3F5807F05D0B3F5007F46D1C0
:1010CC004FF4FA4201E04FF400424FF0B043D3F832
:1010DC00901041F40041C3F89010996D41F4806177
:1010EC0099650368CA2159620368532159620368E0
:1010FC00D96811F0400F06D18021D9600368DB68F4
:10110C0013F0400FFAD00368D968996821F4806114
:10111C0099600368DB6813F0040FFAD003689968D0
:10112C0000219960130983800C49B1FBF3F2C28052
:10113C00013B026843F4702313610268D36823F007
:10114C008003D3600368FF225A620120704700209D
:10115C00704700BF002800400004005818FCE7034B
:10116C00C3888B4223D321B30368CA225A62036813
:10117C0053225A620268936823F480639360026876
:10118C00D36813F0040FFAD0838801FB03F30A49E8
:10119C00A1FB03139B09013B53610268936843F461
:1011AC00806393600368FF225A620120704700201D
:1011BC0070470020704700BFD34D6210134B1A6864
:1011CC0042F400221A60D3F8802042F40022C3F8C3
:1011DC0080200268CA215162026853215162016861
:1011EC00CA6822F48062CA604FF40022DA60084BAD
:1011FC000822C3F880211A600268936843F4804384
:10120C0093600368FF225A6201207047000800585F
:10121C0000E100E00268D36823F48063D360044BE0
:10122C004FF40022DA60034B0822C3F88021704788
:10123C000008005800E100E0086800F00F0CC0F353
:10124C00021000EB80000CEB400010700A68C2F337
:10125C000320C2F3023202EB820200EB42021A704C
:10126C000B68C3F30342C3F3015303EB830302EB99
:10127C004303009A13707047086800F00F0CC0F31A
:10128C00011000EB80000CEB400010700A68C2F3F8
:10129C000320C2F3003202EB820200EB42021A700E
:1012AC000B68C3F30342C3F3035303EB830302EB57
:1012BC004303009A13707047F0B587B0044602A838
:1012CC0080E806001D46A788BDF8083007FB03F32D
:1012DC00534AA2FB0323A7EB9317013F9DF80A3057
:1012EC00504AA2FB0301C90801EB8100A3EB4003A8
:1012FC00DBB243EA01139DF80B00A2FB0061C908A5
:10130C0001EB8106A0EB4600C0B2090341EA0021C3
:10131C0019439DF80C30A2FB0360C00800EB80065B
:10132C00A3EB4603DEB2030543EA06430B439DF8E9
:10133C000D00A2FB0061C90801EB8106A0EB460081
:10134C00C0B240EA01109DF80E60A2FB06C1C908AC
:10135C0001EB810CA6EB4C06F6B2090341EA06211F
:10136C0001439DF80F00A2FB0062D20802EB82063B
:10137C00A0EB4600C6B2100540EA064008432268BE
:10138C00CA2151622268532151622268D16811F03E
:10139C00400F06D18021D1602268D26812F0400F34
:1013AC00FAD02268966A116805915168049113600D
:1013BC00226850602168CA6822F0A002CA602268C4
:1013CC00D16811F0400FFAD147F00041D162226888
:1013DC00FF215162A760E3602061A288964200D38E
:1013EC00B61A4FF47A7306FB03F3B3FBF2F3C3F5AF
:1013FC00797303332A4622F8023B2B1D0093EB1C16
:10140C0005A92046FFF718FFEB1D0093AB1D6A1DC5
:10141C0004A92046FFF730FF012007B0F0BD00BF44
:10142C00D34D6210CDCCCCCC70B584B004460D46F7
:10143C000368DA6812F0200F2ED09B6A02681668D7
:10144C00039650680290D16821F02001D160A3600E
:10145C00E6602061A2889A4200D89B1A4FF47A71F8
:10146C0001FB03F3B3FBF2F3C3F5797303332A46A1
:10147C0022F8023B2B1D0093EB1C03A92046FFF71F
:10148C00DBFEEB1D0093AB1D6A1D02A92046FFF786
:10149C00F3FE012004B070BD8368C2680392026938
:1014AC000292D7E710B4002900DD8160836923F034
:1014BC000F0308338268B3FBF2F3426A116821F020
:1014CC00010414600F2B19D88269D208120108325A
:1014DC008368B2FBF3F241F400414FF6F073134012
:1014EC00C2F342021343426A21F001041460426ABF
:1014FC00D360436A1960012010BC704721F400418D
:10150C00F1E7000038B50446016000230371436223
:10151C0040F20113994212D001291AD00120636ABA
:10152C00002B76D01A6822F001021A602369012B75
:10153C0019D0032B37D0042B37D0002514E0364BB1
:10154C0043624FF0B042D36D43F00103D3650120E9
:10155C00E5E7324B43624FF0B042136E43F48043E5
:10156C0013660220DBE70125616A4A6822F44052C7
:10157C004A60626A536843EA05335360E368072B99
:10158C0015D00025616A0A6822F010220A60626A8E
:10159C00136843EAC5631360237D53B1637D002B4D
:1015AC0035D1022506E00325DEE70225DCE702251E
:1015BC00E8E70025616A0A6822F4C0620A60626A80
:1015CC00136843EA45231360626A136843F00C0303
:1015DC001360626A536823F490435360626A9368A1
:1015EC0023F44A7323F002039360636A0025DD62DF
:1015FC0000F024F8A06129462046FFF753FF626AE9
:10160C00136843F0010313600120207138BD0325DA
:10161C00D0E70020FAE700BF00800040003801400E
:10162C00436ADA6912F0400F03D1DA6912F0800FC5
:10163C0002D099620120704700207047014B186856
:10164C00704700BFA8000020012800D070474FF65B
:10165C00FF739942FAD10A4B4FF0FF321A60002205
:10166C001A714FF4E13199600821D9600221196196
:10167C001A755A759A75DA611A625A62E6E700BFF2
:10168C006800002010B5094C094B062201212046A8
:10169C00FFF75BFC4FF4B813072201212046FFF73C
:1016AC0054FC01210348FFF72DFF10BD64000020FE
:1016BC00010017006800002008B54FF6FF710120EB
:1016CC00FFF7C2FF08BD000000B58DB072B6384AF6
:1016DC00384B9A60FEF7FCFD37493848FFF7F2FAB1
:1016EC0000B9FEE70120FFF7BDFB324AD2F8883083
:1016FC0043F47003C2F88830FFF792FAFFF7C2FF89
:10170C002F4C2046FFF7C4FC4FF44073ADF8283043
:10171C000D238DF82A302B228DF82B208DF82C30B0
:10172C008DF82D3003238DF82E3016238DF82F30A5
:10173C0008AB0CAA12E906002046FFF7BDFD06A96E
:10174C002046FFF771FE1F4D1F492846FEF754FE39
:10175C001E4A1F492846FEF74FFE1E4A1E492846C0
:10176C00FEF74AFE1D4B1A681D492846FEF744FE3B
:10177C009DF81A30BDF818209DF81D109DF81E001C
:10178C009DF81F60049603900291019200939DF8BE
:10179C001B309DF81C2013492846FEF72DFE2046D1
:1017AC00FFF70CFD64212046FFF7DAFC62B6FEE77A
:1017BC000000000800ED00E00090D0030048E801B4
:1017CC009000002068000020FC1800082819000870
:1017DC00301900084819000854190008A800002006
:1017EC00601900087819000810B588B0334B1A68D6
:1017FC0001321A601B68142B0FD006A93048FFF772
:10180C0013FE2E4B1B6803F00703072B10D8DFE8E1
:10181C0003F00A2B31373D43494F4FF4FA712848F6
:10182C00FFF79EFCE9E7274A27492848FEF7E4FD25
:10183C009DF81A30BDF818209DF81D109DF81E005B
:10184C009DF81F40049403900291019200939DF81F
:10185C001B309DF81C201E491C48FEF7CDFD184876
:10186C00FFF7D8FC08B010BD1A4A17491748FEF705
:10187C00C3FDDDE7184A14491448FEF7BDFDD7E750
:10188C00164A11491148FEF7B7FDD1E7144A0E4923
:10189C000E48FEF7B1FDCBE7124A0B490B48FEF799
:1018AC00ABFDC5E7104A08490848FEF7A5FDBFE7A0
:1018BC000E4A05490548FEF79FFDB9E7A400002034
:1018CC0090000020AC190008B41900086800002032
:1018DC0078190008B8190008C0190008C8190008C0
:1018EC0028190008D0190008D8190008E0190008B8
:1018FC000D0A2D2D2D2D2D2D2D2D2D2D2D2D2D2D4F
:10190C002D2D2D2D2D2D2D2D2D2D2D2D2D2D2D2DFB
:10191C002D2D2D2D2D2D2D2D0D0A00001B5B33345F
:10192C006D000000257348656C6C6F2046726F6DFE
:10193C0020564948414C20210D0A0000526F6C6C16
:10194C006F436F6E00000000426F6172643A202595
:10195C00730D0A0053797374656D436F7265436C34
:10196C006F636B3A2025750D0A0000002530326834
:10197C0068753A2530326868753A25303268687572
:10198C002E2530336875202530326868752E253049
:10199C00326868752E2530326868750D0A000000B3
:1019AC001B5B306D00000000257300001B5B3331A6
:1019BC006D0000001B5B33326D0000001B5B33338A
:1019CC006D0000001B5B33356D0000001B5B333674
:0C19DC006D0000001B5B33376D00000045
:1019E800044BD3F8F03013F0010F00D000BE00BF55
:1019F800FDE700BF00ED00E072B6044BD3F8F0300D
:101A080013F0010F00D000BE00BFFDE700ED00E0BD
:101A180072B6044BD3F8F03013F0010F00D000BEBB
:101A280000BFFDE700ED00E072B6044BD3F8F030DC
:101A380013F0010F00D000BE00BFFDE700ED00E08D
:101A480072B6044BD3F8F03013F0010F00D000BE8B
:101A580000BFFDE700ED00E072B6044BD3F8F030AC
:101A680013F0010F00D000BE00BFFDE700ED00E05D
:101A780072B6044BD3F8F03013F0010F00D000BE5B
:101A880000BFFDE700ED00E072B6044BD3F8F0307C
:101A980013F0010F00D000BE00BFFDE700ED00E02D
:101AA80072B6044BD3F8F03013F0010F00D000BE2B
:0C1AB80000BFFDE700ED00E0704700BF3C
:04000005080002E508
:00000001FF
